:100000000348044B834202D0034B03B118477047A7
:100010000800002008000020000000000548064BF2
:100020001B1AD90F01EBA301491002D0034B03B1F6
:10003000184770470800002008000020000000005A
:1000400010B5064C237843B9FFF7DAFF044B13B120
:100050000448AFF300800123237010BD0800002086
:1000600000000000A400000008B5054B1BB10549C5
:100070000548AFF30080BDE80840FFF7CFBF00BFE1
:10008000000000000C000020A4000000F8B500BF34
:10009000F8BC08BC9E467047F8B500BFF8BC08BC69
:0800A0009E46704700000000BD
:0C00A800B4000000000000200200000076
:0800B40069000000410000009A
:00000001FF
